:100000000C942E000C944B000C944B000C944B0061
:100010000C944B000C944B000C944B000C944B0034
:100020000C944B000C944B000C9437020C944B0036
:100030000C944B000C944B000C944B000C944B0014
:100040000C944B000C944B000C944B000C944B0004
:100050000C944B000C944B000C944B0011241FBECD
:10006000CFEFD4E0DEBFCDBF11E0A0E0B1E0EEE91C
:10007000F6E002C005900D92A230B107D9F711E069
:10008000A2E0B1E001C01D92A631B107E1F70E94E4
:1000900071000C944D030C940000F894E1E6F0E03C
:1000A0001082808180688083808180837894089525
:1000B0008AB183608AB98BB183708BB90895882324
:1000C00019F08BB1816002C08BB18E7F8BB908951E
:1000D000882319F08BB1826002C08BB18D7F8BB900
:1000E00008950E944D008AB183608AB98BB18370F4
:1000F0008BB90E94DA000E947C010E9401020E94DA
:10010000B601882321F08AE00E94560107C00E94B0
:10011000F601882351F08AE00E94490168EE73E0FD
:1001200080E090E00E945C0203C08AE00E946F01C0
:1001300064E670E080E090E00E945C02E0CF1F93F4
:10014000182F653614F064E603C06C390CF46CE9C2
:10015000123070F5772767FD7095872F972F24EF62
:1001600031E040E050E00E94CA0228EC30E040E07C
:1001700050E00E94FC0222513D4F83E0293E3807A7
:1001800018F028EE33E006C081E0243F380710F471
:1001900024EF31E0112319F0113051F405C03093F0
:1001A00089002093880004C030938B0020938A003C
:1001B0001F910895EF92FF920F931F9300E810E0B4
:1001C000F801108281E8E82EF12CF701108284B149
:1001D000806684B987E28093870080E180938600FF
:1001E00080E060E00E949F0081E060E00E949F004C
:1001F000F801808180688083808180628083F7013C
:100200008081806180838081826080831F910F91D3
:10021000FF90EF9008951F93182F70E0992787FDA6
:1002200090959C01629FC001639F900D729F900DFD
:10023000112464E670E00E94E90280E00E949F00C1
:10024000119581E0612F0E949F001F910895EF9208
:10025000FF920F931F93082FE62E80E0602F0E94DD
:100260009F00FF24112707FD1095E09EC001E19E2D
:10027000900DF09E900D112464E670E00E94E9025A
:10028000619581E00E949F001F910F91FF90EF9078
:1002900008951F93182F119580E0612F0E949F00F1
:1002A00081E0612F0E949F001F9108951F93182FD6
:1002B00080E0612F0E949F0081E0612F0E949F00DB
:1002C0001F9108951F93182F682F619580E00E9459
:1002D0009F0081E0612F0E949F001F9108951F934E
:1002E000182F80E0612F0E949F00119581E0612FFF
:1002F0000E949F001F910895219A2998209A28987A
:100300000895219A299A80E197E20197F1F71092D6
:100310000601109207011092080110920901F89449
:100320002998219880E090E0A0E0B0E003C0019619
:10033000A11DB11D199B08C08C3221E0920720E05D
:10034000A20720E0B20798F380930601909307017B
:10035000A0930801B093090178946091060170910F
:100360000701809108019091090108950E9481017F
:1003700020E06C5271408040904008F421E0822FD0
:100380000895209A289A80E197E20197F1F7109258
:100390000201109203011092040110920501F894D9
:1003A0002898209880E090E0A0E0B0E003C001969B
:1003B000A11DB11D189B08C08C3221E0920720E0DE
:1003C000A20720E0B20798F3809302019093030103
:1003D000A0930401B093050178946091020170919B
:1003E0000301809104019091050108950E94C101CB
:1003F00020E06C5271408040904008F421E0822F50
:100400000895F89410920A0110920B0110920C01B9
:1004100010920D0114BC84B5886084BDEEE6F0E056
:1004200080818260808388E087BD78940895F89405
:1004300010920A0110920B0110920C0110920D0102
:10044000E0EBF0E01082808188608083E0E7F0E0FC
:10045000808182608083E6EBF0E080818860808329
:1004600081E08093B3001092B200789408951F92B7
:100470000F920FB60F9211248F939F93AF93BF9358
:1004800080910A0190910B01A0910C01B0910D0196
:100490000196A11DB11D80930A0190930B01A093B9
:1004A0000C01B0930D01BF91AF919F918F910F906F
:1004B0000FBE0F901F901895EF92FF920F931F930E
:1004C0007B018C01F89410920A0110920B0110929A
:1004D0000C0110920D0184B58B7F84BD84B58560BD
:1004E00084BD16BC7894F89480910A0190910B0118
:1004F000A0910C01B0910D01809312019093130112
:10050000A0931401B09315017894209112013091B9
:100510001301409114015091150120930E01309365
:100520000F01409310015093110107C083B7816000
:1005300083BF889583B78E7F83BFF89480910A012B
:1005400090910B01A0910C01B0910D0180931201CB
:1005500090931301A0931401B093150178948091A6
:10056000120190911301A0911401B0911501821B09
:10057000930BA40BB50B8E159F05A007B107B0F226
:10058000F89484B5887F84BD78941F910F91FF9073
:10059000EF900895629FD001739FF001829FE00D5C
:1005A000F11D649FE00DF11D929FF00D839FF00DF2
:1005B000749FF00D659FF00D9927729FB00DE11D9E
:1005C000F91F639FB00DE11DF91FBD01CF0111247B
:1005D000089597FB092E07260AD077FD04D027D06F
:1005E00006D000201AF4709561957F4F0895F6F7B4
:1005F000909581959F4F089597FB092E05260ED063
:1006000057FD04D028D00AD0001C38F450954095EE
:10061000309521953F4F4F4F5F4F0895F6F79095D6
:100620008095709561957F4F8F4F9F4F0895AA1BBE
:10063000BB1B51E107C0AA1FBB1FA617B70710F0CD
:10064000A61BB70B881F991F5A95A9F780959095FF
:10065000BC01CD010895A1E21A2EAA1BBB1BFD010E
:100660000DC0AA1FBB1FEE1FFF1FA217B307E40791
:10067000F50720F0A21BB30BE40BF50B661F771FE9
:10068000881F991F1A9469F76095709580959095C9
:0E0690009B01AC01BD01CF010895F894FFCF8E
:02069E00020058
:00000001FF
